WAMAS     ODOO      00000720250114132733WEAKQ0051000212712              ODOO 20250114070918                                                  19700101010000202501140710472025011413132320250114070939                                                                             0001069         
WAMAS     ODOO      00000820250114132733WEAPQ0050000212712              000ABCDE/IN/00424      ODOO 000185              0000019623                00099098 2             00000DISPONIBLE          000000100000000000000000     BOUT                     19700101                    12    eCAM  173980  N
WAMAS     ODOO      00000920250114132733WEAPQ0050000212712              000ABCDE/IN/00409      ODOO 000176              0000019623                00012766               00000DISPONIBLE          000000114000000000000000     BOUT                     19700101                    12    eCAM  173970  N
WAMAS     ODOO      00001020250114132733WEAPQ0050000212712              000ABCDE/IN/00409      ODOO 000176              0000019623                00012766               00000DISPONIBLE          000000115000000000000000     BOUT                     19700101                    12    eCAM  173970  N
